{
  "contractName": "UserList",
  "abi": [
    {
      "constant": true,
      "inputs": [],
      "name": "taskCount",
      "outputs": [
        {
          "name": "",
          "type": "uint256"
        }
      ],
      "payable": false,
      "stateMutability": "view",
      "type": "function",
      "signature": "0xb6cb58a5"
    }
  ],
  "bytecode": "0x608060405260008055348015601357600080fd5b50609e806100226000396000f3fe608060405260043610603f576000357c0100000000000000000000000000000000000000000000000000000000900463ffffffff168063b6cb58a5146044575b600080fd5b348015604f57600080fd5b506056606c565b6040518082815260200191505060405180910390f35b6000548156fea165627a7a723058207f45b22e3c25506193013087dd8a13b3b996a2b2abae7d2f2176fb826cda0fda0029",
  "source": "pragma solidity ^0.5.0;\r\n\r\ncontract UserList {\r\n \r\n  uint public taskCount = 0;\r\n\r\n \r\n}",
  "sourcePath": "D:/BlockChain/HealthCareSystem/contracts/UserList.sol",
  "compiler": {
    "name": "solc",
    "version": "0.5.0+commit.1d4f565a.Emscripten.clang"
  },
  "schemaVersion": "3.0.1",
  "updatedAt": "2022-01-02T07:04:35.571Z",
  "devdoc": {
    "methods": {}
  },
  "userdoc": {
    "methods": {}
  }
}